:100000000C945E000C9486000C9486000C94860080
:100010000C9486000C9486000C9486000C94860048
:100020000C9486000C9486000C9486000C94860038
:100030000C9486000C9486000C9486000C94860028
:100040000C9496030C9486000C9460060C94920613
:100050000C9486000C9486000C9486000C94860008
:100060000C9486000C948600000000080002010039
:100070000003040700000000000000000102040863
:100080001020408001020408102001020408102002
:10009000040404040404040402020202020203032E
:1000A0000303030300000000250028002B000000CC
:1000B0000000240027002A00D301C20611241FBE1D
:1000C000CFEFD8E0DEBFCDBF14E0A0E0B1E0E6EDB9
:1000D000F6E102C005900D92A033B107D9F724E0F4
:1000E000A0E3B4E001C01D92A13EB207E1F710E029
:1000F000CCEBD0E004C02297FE010E94650BC83B08
:10010000D107C9F70E9406070C94690B0C940000F4
:100110002F923F924F925F926F927F928F929F9217
:10012000AF92BF92CF92DF92EF92FF92CF93DF9385
:1001300000D000D0CDB7DEB76B017C014A01B22EF2
:10014000FA0120813181428153810E94680987FD33
:100150006FC0F40184E0B89EE00DF11D11243497C6
:100160002081318142815381C701B6010E94B70AC3
:1001700018160CF462C0B12C6B2C712CF40184E0C5
:10018000B89EE00DF11D1124208031804280538003
:10019000A2019101C701B6010E94B70A181614F412
:1001A000B394EACFA2019101C701B6010E94680988
:1001B000811107C06B2D70E080E090E00E94050A7D
:1001C00040C0F301E150F04CEE0FFF1FEE0FFF1F98
:1001D000E80DF91D80809180A280B380B301615049
:1001E0007109882777FD8095982F0E94070A6983F7
:1001F0007A838B839C83A5019401C701B6010E9479
:1002000003096B017C01A5019401C201B1010E94A7
:1002100003099B01AC01C701B6010E946C099B0157
:10022000AC0169817A818B819C810E94040909C09B
:1002300061EE7AEF87EC92EC04C061EE7AEF87EC26
:1002400092E40F900F900F900F90DF91CF91FF905D
:10025000EF90DF90CF90BF90AF909F908F907F9066
:100260006F905F904F903F902F90089526E040E868
:1002700055E260E070E084E494E00C94FE058F9217
:100280009F92AF92BF92CF92DF92EF92FF928EE059
:100290000E9466045C016091000170910101882751
:1002A00077FD8095982F0E94070A6B017C01B501AC
:1002B000882777FD8095982F0E94070A2AE038E268
:1002C00040EA5BE30E94BB0A9B01AC0160E070E086
:1002D00080EA90E40E946C0920E030E040E85FE3AF
:1002E0000E9403099B01AC01C701B6010E946C0981
:1002F0004B015C0120EA42E051E00E9488006B0162
:100300007C0163E873E084E494E00E94530722E0F8
:1003100030E0B501A40184E494E00E94000960E9A2
:1003200073E084E494E00E94600765E973E084E48C
:1003300094E00E94530722E030E0B701A60184E474
:1003400094E00E94000963EA73E084E494E00E9470
:10035000600780E394E00E94B002C701B6010E94EA
:10036000D409AB01BC0128E030E080E394E00E94B6
:10037000160241E050E066EA73E080E394E00E94F8
:10038000DF0180E394E00E94000360E971E080E017
:1003900090E0FF90EF90DF90CF90BF90AF909F9054
:1003A0008F900C9403046AE080E394E00C9445037E
:1003B0008EBD00000DB407FEFDCF8EB508951F93CE
:1003C000CF93DF93FB0101900020E9F73197E61B03
:1003D000F70B4830510540F04830510529F028EF1F
:1003E000240F48E050E001C020E0122F140F312FFD
:1003F000341B41155105B1F0232F30E02E173F0774
:1004000089F041505109EC01C40FD51FDB01A20F47
:10041000B31FAC91BB27A7FDB095A757BC4F2C913C
:100420002883E5CFDF91CF911F9108953F924F929E
:100430005F926F927F928F929F92AF92BF92CF9274
:10044000DF92EF92FF920F931F93CF93DF93CDB77D
:10045000DEB72A970FB6F894DEBF0FBECDBF5C01A2
:100460006A017B01890177FF08C066277727CB01E6
:100470006C197D098E099F0907C041155105610559
:10048000710549F0CB01BA01312C3AE0432E512CD1
:10049000612C712C04C080E3898321E025C088246D
:1004A0008394912C8C0E9D1E830C911CA3019201B0
:1004B0000E94440B605DF4016083B901CA0121E030
:1004C000230D611571058105910511F0322EE7CFDD
:1004D000F7FE0AC0E1E0F0E0EC0FFD1FE20FF11DB6
:1004E0008DE2808322E0230D08301105F8F00830FA
:1004F0001105E1F0201B285F08E010E017C001158E
:100500001105B1F0215001501109D501A00FB11F03
:10051000E1E0F0E0EC0FFD1FE20FF11DE081FF27AD
:10052000E7FDF095E757FC4F80818C932111E7CFD1
:100530002A960FB6F894DEBF0FBECDBFDF91CF91E4
:100540001F910F91FF90EF90DF90CF90BF90AF90F1
:100550009F908F907F906F905F904F903F90089505
:1005600020E030E0FC011192CF012F5F3F4F283097
:100570003105C1F70895EF92FF920F931F93CF9328
:10058000DF931F92CDB7DEB77C01062F142F60E0FA
:10059000FC01808529830E94E5042981211105C081
:1005A000802F0E94D801812F04C080E00E94D801D2
:1005B00080E00E94D80161E0F70180850E94E50497
:1005C00060E0F70180850F90DF91CF911F910F912F
:1005D000FF90EF900C94E504242F462F6CE00C94D0
:1005E000BB02242F462F6FE00C94BB02242F462F12
:1005F0006BE00C94BB02242F462F6AE00C94BB02E4
:100600000F931F93CF93DF93EC0110E000E0FE0106
:10061000E10FF11D88E0089FE00DF11D11244081DC
:100620001F5F202F612FCE010E94BB02183011F4F2
:100630000F5F10E0083058F3DF91CF911F910F91B9
:100640000895CF93DF93EC0120E040E069E00E9441
:10065000BB0240E06FE0CE010E94FB0240E067E099
:10066000CE010E94F60240E060E0CE010E94F1025D
:1006700040E061E0CE010E94EC02CE010E94B00297
:10068000CE01DF91CF910C9400031F93CF93DF93A2
:10069000EC01162F0E9460038CB58F7D8CBD1887EE
:1006A00061E0812F0E94AC0461E0812F0E94E5048B
:1006B000CE010E9421031986DF91CF911F910895E9
:1006C000CF93CFB7F89480913A04811127C0EAE91B
:1006D000F0E08491E6E8F0E09491E82FF0E0EE0F8E
:1006E000FF1FE255FF4FA591B4918C91892321F40E
:1006F00061E08AE00E94E50461E08AE00E94AC04C7
:100700008CB580618CBD8CB580648CBD61E08DE062
:100710000E94AC0461E08BE00E94AC0480913A043A
:100720008F5F80933A04CFBFCF9108951F920F92AD
:100730000FB60F9211242F933F938F939F93AF93F4
:10074000BF9380913C0490913D04A0913E04B091F0
:100750003F0430913B0423E0230F2D3720F4019612
:10076000A11DB11D05C026E8230F0296A11DB11DD4
:1007700020933B0480933C0490933D04A0933E045B
:10078000B0933F048091400490914104A0914204B1
:10079000B09143040196A11DB11D80934004909334
:1007A0004104A0934204B0934304BF91AF919F9141
:1007B0008F913F912F910F900FBE0F901F90189522
:1007C0003FB7F8948091400490914104A091420475
:1007D000B091430426B5A89B05C02F3F19F00196A0
:1007E000A11DB11D3FBF6627782F892F9A2F620F59
:1007F000711D811D911D42E0660F771F881F991F93
:100800004A95D1F70895CF92DF92EF92FF92CF935E
:10081000DF936B017C010E94E003EB01C114D10462
:10082000E104F10489F00E9402090E94E0036C1BBC
:100830007D0B683E734090F381E0C81AD108E1084F
:10084000F108C851DC4FEACFDF91CF91FF90EF90D4
:10085000DF90CF900895789484B5826084BD84B58C
:10086000816084BD85B5826085BD85B5816085BDAB
:10087000EEE6F0E0808181608083E1E8F0E01082C4
:10088000808182608083808181608083E0E8F0E005
:10089000808181608083E1EBF0E0808184608083EF
:1008A000E0EBF0E0808181608083EAE7F0E0808126
:1008B0008460808380818260808380818160808386
:1008C0008081806880831092C10008958E3008F086
:1008D0008E5087702091820390E4299F900111240B
:1008E000822B80937C0080917A00806480937A00D0
:1008F00080917A0086FDFCCF80917800209179006C
:1009000090E0922B0895833081F028F4813099F0A3
:100910008230A1F008958730A9F08830B9F0843092
:10092000D1F4809180008F7D03C0809180008F770B
:1009300080938000089584B58F7702C084B58F7D41
:1009400084BD08958091B0008F7703C08091B0007E
:100950008F7D8093B0000895CF93DF9390E0FC01EA
:10096000E458FF4F2491FC01E057FF4F8491882306
:1009700049F190E0880F991FFC01E255FF4FA591C6
:10098000B4918C559F4FFC01C591D4919FB76111D3
:1009900008C0F8948C91209582238C9388818223BF
:1009A0000AC0623051F4F8948C91322F3095832331
:1009B0008C938881822B888304C0F8948C91822B3D
:1009C0008C939FBFDF91CF9108950F931F93CF9387
:1009D000DF931F92CDB7DEB7282F30E0F901E85939
:1009E000FF4F8491F901E458FF4F1491F901E0574A
:1009F000FF4F04910023C9F0882321F069830E94EE
:100A000083046981E02FF0E0EE0FFF1FEC55FF4FEC
:100A1000A591B4919FB7F8948C91611103C0109582
:100A2000812301C0812B8C939FBF0F90DF91CF91C9
:100A30001F910F910895FC01818D228D90E0805CC3
:100A40009F4F821B91098F7399270895FC01918D07
:100A5000828D981731F0828DE80FF11D858D90E021
:100A600008958FEF9FEF0895FC01918D828D981767
:100A700061F0828DDF01A80FB11D5D968C91928D82
:100A80009F5F9F73928F90E008958FEF9FEF08957F
:100A900088EB96E0892B49F080E090E0892B29F0E3
:100AA0000E94B80681110C9400000895FC01848D09
:100AB000DF01A80FB11DA35ABF4F2C91848D90E088
:100AC00001968F739927848FA689B7892C93A08963
:100AD000B1898C9180648C93938D848D981306C01A
:100AE0000288F389E02D80818F7D80830895CF93E4
:100AF000DF93EC01888D8823C9F0EA89FB89808126
:100B000085FD05C0A889B9898C9186FD0FC00FB6F7
:100B100007FCF5CF808185FFF2CFA889B9898C9138
:100B200085FFEDCFCE010E945605E7CFDF91CF9133
:100B30000895CF92DF92FF920F931F93CF93DF938D
:100B40001F92CDB7DEB76C0181E0D60158968C9329
:100B500058975B969C915B975C968C915C979813E9
:100B600007C05096ED91FC915197808185FD2EC074
:100B7000F601038D10E00F5F1F4F0F731127F02E4A
:100B8000F601848DF81211C00FB607FCF9CFD6011B
:100B90005096ED91FC915197808185FFF1CFC60170
:100BA00069830E9456056981EBCF838DE80FF11DA3
:100BB000E35AFF4F6083D6015B960C935B97529686
:100BC000ED91FC915397808180620CC0D6015696BE
:100BD000ED91FC91579760835096ED91FC91519760
:100BE00080818064808381E090E00F90DF91CF91DD
:100BF0001F910F91FF90DF90CF900895BF92CF92F9
:100C0000DF92EF92FF92CF93DF93EC016A017B01B9
:100C1000B22EE889F98982E08083411581EE580778
:100C200061057105A1F060E079E08DE390E0A70136
:100C300096010E94220B2150310941095109569514
:100C4000479537952795211580E1380798F0E88971
:100C5000F989108260E874E88EE190E0A7019601BE
:100C60000E94220B2150310941095109569547959F
:100C700037952795EC85FD853083EE85FF852083AC
:100C8000188EEC89FD89B082EA89FB8980818061B8
:100C90008083EA89FB89808188608083EA89FB8977
:100CA000808180688083EA89FB8980818F7D808351
:100CB000DF91CF91FF90EF90DF90CF90BF9008959C
:100CC0001F920F920FB60F9211242F938F939F9321
:100CD000EF93FF93E0915404F09155048081E091EB
:100CE0005A04F0915B0482FD12C0908180915D04F2
:100CF0008F5F8F7320915E04821751F0E0915D0445
:100D0000F0E0EC5BFB4F958F80935D0401C0808128
:100D1000FF91EF919F918F912F910F900FBE0F90A8
:100D20001F9018951F920F920FB60F9211242F93B8
:100D30003F934F935F936F937F938F939F93AF9363
:100D4000BF93EF93FF9384E494E00E945605FF91D4
:100D5000EF91BF91AF919F918F917F916F915F9133
:100D60004F913F912F910F900FBE0F901F901895AC
:100D700084E494E00E941B0521E0892B09F420E023
:100D8000822F0895109247041092460488EE93E053
:100D9000A0E0B0E08093480490934904A0934A04F3
:100DA000B0934B0482E194E0909345048093440413
:100DB00085EC90E0909351048093500484EC90E093
:100DC000909353048093520480EC90E090935504E8
:100DD0008093540481EC90E09093570480935604E0
:100DE00082EC90E0909359048093580486EC90E054
:100DF00090935B0480935A0410925D0410925E04F9
:100E000010925F0410926004089508950E942B04CC
:100E10000E9405070E943601C8E4D5E00E943F0108
:100E20002097E1F30E944805F9CFCF92DF92EF922D
:100E3000FF920F931F93CF93DF936C017A01EB0125
:100E4000E60EF71E00E010E0CE15DF0561F06991B7
:100E5000D601ED91FC910190F081E02DC60109953C
:100E6000080F191FF1CFC801DF91CF911F910F918A
:100E7000FF90EF90DF90CF9008956115710581F09C
:100E8000DB010D900020E9F7AD0141505109461BEF
:100E9000570BDC01ED91FC910280F381E02D099468
:100EA00080E090E008950C943D07DC01ED91FC9109
:100EB0000190F081E02D09946EE174E00C943D07FF
:100EC0000F931F93CF93DF93EC010E943D078C019A
:100ED000CE010E945C07800F911FDF91CF911F917F
:100EE0000F9108958F929F92AF92BF92CF92DF920F
:100EF000EF92FF920F931F93CF93DF93CDB7DEB79F
:100F0000A1970FB6F894DEBF0FBECDBF7C01C42EF3
:100F1000E52FCB01D22E19A221E02D1510F02AE0E9
:100F2000D22E8E010F5D1F4F8D2C912CA12CB12C38
:100F30006C2D7E2FA50194010E94220B8C2DD29E38
:100F400080191124015011098A3014F4805D01C008
:100F5000895CF8018083211531054105510521F097
:100F6000C22EE32FCA01E4CFB801C7010E943D079A
:100F7000A1960FB6F894DEBF0FBECDBFDF91CF9123
:100F80001F910F91FF90EF90DF90CF90BF90AF90A7
:100F90009F908F900895CF92DF92EF92FF920F93E0
:100FA0001F93CF93DF93EC016A017B01211531057B
:100FB00079F4E881F9810190F081E02D642FDF91CF
:100FC000CF911F910F91FF90EF90DF90CF900994F8
:100FD0002A303105E9F477FF1AC06DE20E94550707
:100FE0008C0144275527BA014C195D096E097F0908
:100FF0002AE0CE010E947207800F911FDF91CF91EE
:101000001F910F91FF90EF90DF90CF9008952AE00D
:10101000B701A601CE01DF91CF911F910F91FF90F3
:10102000EF90DF90CF900C9472074F925F926F9287
:101030007F928F929F92AF92BF92CF92DF92EF9268
:10104000FF920F931F93CF93DF93EC016A017B0113
:10105000B22E9A01AB01C701B6010E941E0B882374
:1010600019F061E274E027C026013701E89477F8AF
:101070002FEF3FEF4FE75FE7C301B2010E941E0B66
:1010800081110DC02FEF3FEF4FE75FE7C301B201C2
:101090000E94680918161CF465E274E00CC02FEF7A
:1010A0003FEF4FE75FE4C701B6010E94B70A181689
:1010B000ACF469E274E0CE01DF91CF911F910F9102
:1010C000FF90EF90DF90CF90BF90AF909F908F9068
:1010D0007F906F905F904F900C943D072FEF3FEF04
:1010E0004FE75FECC701B6010E94680987FDE1CFB9
:1010F00020E030E0A901C701B6010E94680987FF1E
:101100000AC06DE2CE010E9455078C01F7FAF094F7
:10111000F7F8F09402C000E010E0A12C60E070E06D
:1011200080E09FE3AB1441F020E030E040E251E486
:101130000E946C09A394F6CF9B01AC01C701B601D4
:101140000E9404096B017C010E94D9092B013C011A
:101150000E94050A9B01AC01C701B6010E94030968
:101160006B017C012AE0B301A201CE010E9472074B
:10117000080F191FBB2039F06DE274E0CE010E9408
:101180003D07080F191F7B2C772041F120E030E04C
:1011900040E251E4C701B6010E94BB0A6B017C0129
:1011A0000E94D4094B01AA2497FCA094BA2C2AE0EF
:1011B00030E0B501A401CE010E94CB07080F191F32
:1011C000C501B4010E94070A9B01AC01C701B60129
:1011D0000E9403096B017C017A94D6CFC801DF918C
:1011E000CF911F910F91FF90EF90DF90CF90BF9024
:1011F000AF909F908F907F906F905F904F900895E9
:101200000C94150808955058BB27AA270ED075C115
:1012100066D130F06BD120F031F49F3F11F41EF411
:101220005BC10EF4E095E7FB51C1E92F77D180F364
:10123000BA17620773078407950718F071F49EF5D3
:101240008FC10EF4E0950B2EBA2FA02D0B01B90122
:1012500090010C01CA01A0011124FF27591B99F02C
:10126000593F50F4503E68F11A16F040A22F232F38
:10127000342F4427585FF3CF469537952795A79588
:10128000F0405395C9F77EF41F16BA0B620B730B2F
:10129000840BBAF09150A1F0FF0FBB1F661F771FA0
:1012A000881FC2F70EC0BA0F621F731F841F48F455
:1012B000879577956795B795F7959E3F08F0B3CFDB
:1012C0009395880F08F09927EE0F979587950895C5
:1012D000D9D008F481E008950CD00FC107D140F0B7
:1012E000FED030F021F45F3F19F0F0C0511139C148
:1012F000F3C014D198F39923C9F35523B1F3951B87
:10130000550BBB27AA2762177307840738F09F5F26
:101310005F4F220F331F441FAA1FA9F333D00E2E95
:101320003AF0E0E830D091505040E695001CCAF702
:1013300029D0FE2F27D0660F771F881FBB1F2617C7
:1013400037074807AB07B0E809F0BB0B802DBF019A
:10135000FF2793585F4F2AF09E3F510568F0B6C0B3
:1013600000C15F3FECF3983EDCF386957795679577
:10137000B795F7959F5FC9F7880F911D969587954B
:1013800097F90895E1E0660F771F881FBB1F62176A
:1013900073078407BA0720F0621B730B840BBA0B28
:1013A000EE1F88F7E095089504D06894B111D9C074
:1013B0000895BCD088F09F5790F0B92F9927B75166
:1013C000A0F0D1F0660F771F881F991F1AF0BA9509
:1013D000C9F712C0B13081F0C3D0B1E00895C0C0E8
:1013E000672F782F8827B85F39F0B93FCCF38695FF
:1013F00077956795B395D9F73EF49095809570955C
:1014000061957F4F8F4F9F4F0895E89409C097FBD8
:101410003EF490958095709561957F4F8F4F9F4FCB
:101420009923A9F0F92F96E9BB279395F69587950F
:1014300077956795B795F111F8CFFAF4BB0F11F4D2
:1014400060FF1BC06F5F7F4F8F4F9F4F16C0882379
:1014500011F096E911C0772321F09EE8872F762FAF
:1014600005C0662371F096E8862F70E060E02AF0F0
:101470009A95660F771F881FDAF7880F96958795DC
:1014800097F90895990F0008550FAA0BE0E8FEEFB1
:1014900016161706E807F907C0F012161306E40738
:1014A000F50798F0621B730B840B950B39F40A2631
:1014B00061F0232B242B252B21F408950A2609F40F
:1014C000A140A6958FEF811D811D089597F99F6713
:1014D00080E870E060E008959FEF80EC08950024BC
:1014E0000A941616170618060906089500240A9489
:1014F00012161306140605060895092E0394000C0F
:1015000011F4882352F0BB0F40F4BF2B11F460FF9D
:1015100004C06F5F7F4F8F4F9F4F089557FD9058C6
:10152000440F551F59F05F3F71F04795880F97FBA7
:10153000991F61F09F3F79F0879508951216130661
:101540001406551FF2CF4695F1DF08C01616170690
:101550001806991FF1CF86957105610508940895C5
:10156000E894BB2766277727CB0197F908958ADF90
:1015700008F48FEF08950BD0C0CFB1DF28F0B6DFAD
:1015800018F0952309F0A2CFA7CF1124EACFC6DF28
:10159000A0F3959FD1F3950F50E0551F629FF00186
:1015A000729FBB27F00DB11D639FAA27F00DB11DDF
:1015B000AA1F649F6627B00DA11D661F829F222768
:1015C000B00DA11D621F739FB00DA11D621F839FEF
:1015D000A00D611D221F749F3327A00D611D231FC5
:1015E000849F600D211D822F762F6A2F11249F5713
:1015F00050408AF0E1F088234AF0EE0FFF1FBB1F36
:10160000661F771F881F91505040A9F79E3F5105D4
:1016100070F05CCFA6CF5F3FECF3983EDCF386958D
:1016200077956795B795F795E7959F5FC1F7FE2B7F
:10163000880F911D9695879597F9089523DF880B5C
:10164000990B0895A1E21A2EAA1BBB1BFD010DC028
:10165000AA1FBB1FEE1FFF1FA217B307E407F50762
:1016600020F0A21BB30BE40BF50B661F771F881F3E
:10167000991F1A9469F760957095809590959B01D4
:10168000AC01BD01CF010895052E97FB1EF4009417
:101690000E945B0B57FD07D00E94220B07FC03D072
:1016A0004EF40C945B0B50954095309521953F4F2F
:1016B0004F4F5F4F089590958095709561957F4F3E
:1016C0008F4F9F4F0895EE0FFF1F0590F491E02D6F
:0616D0000994F894FFCF1D
:1016D600D9000000C842AEC7C8425C8FC9420A574B
:1016E600CA42B81ECB4266E6CB4214AECC42C375A4
:1016F600CD42713DCE421F05CF42CDCCCF427B9429
:10170600D042295CD142D723D24285EBD24233B3B1
:10171600D342E17AD4428F42D5423D0AD642CDCC5D
:10172600D6427B94D742295CD842D723D94285EB4F
:10173600D94233B3DA42C375DB42713DDC421F0541
:10174600DD42CDCCDD427B94DE420A57DF42B81E35
:10175600E04266E6E042F6A8E142A470E242523870
:10176600E3420000E4428FC2E4423D8AE542CD4CAA
:10177600E6427B14E74229DCE742B89EE842666609
:10178600E942F628EA42A4F0EA4252B8EB42E17A8C
:10179600EC428F42ED421F05EE42CDCCEE425C8F0D
:1017A600EF420A57F0429A19F14248E1F142D7A3B3
:1017B600F242856BF342142EF442A4F0F44252B87E
:1017C600F542E17AF6428F42F7421F05F842AEC76C
:1017D600F8425C8FF942EC51FA427B14FB4229DC59
:1017E600FB42B89EFC424861FD42F628FE4285EB6C
:1017F600FE4214AEFF4252380043299C004371FD5D
:101806000043B85E014300C00143482102431F85DF
:10181600024366E602439A1903436666034333B3FB
:10182600034300000443CD4C04439A99044366E6FF
:1018360004433333054300800543C3B506438F0293
:1018460007435C4F0743299C0743F6E80743C33524
:1018560008438F8208435CCF0843291C0943F66876
:1018660009438F820A435CCF0A43291C0B43F6685F
:101876000B43C3B50B438F020C435C4F0C43299CAF
:101886000C43F6E80C43C3350D433D4A0E430A9715
:101896000E43D7E30E43291C0F43F6680F43C3B527
:1018A6000F4300001043CD4C10439A99104366E64F
:1018B6001043EC111243B85E124385AB124352F843
:1018C60012431F451343EC911343B8DE1343852B94
:1018D6001443527814431FC514437BD4154348213F
:1018E6001643146E1643E1BA1643AE0717437B54EC
:1018F600174348A1174314EE1743E13A1843AE873E
:1019060018437B94194348E11943142E1A43E17A8C
:101916001A43AEC71A437B141B4348611B4314AEDC
:101926001B43E1FA1B43AE471C437B141D4348612E
:101936001D4314AE1D43E1FA1D43AE471E437B947F
:101946001E4348E11E43142E1F43E17A1F43AEC7D0
:101956001F4301526573697374616E63653A2000B3
:10196600204F686D0054656D70657261747572659F
:101976003A200020430043650000A022364B5A6FF0
:10198600024E786307180180257E306D79335B5FE0
:10199600707F7B0919434161657D771F4E3D4F4737
:1019A6005E373038570E54767E6773665B0F3E3A65
:1019B6002A373B694E1378620802771F4E3D4F4720
:1019C6005E373038570E54767E6773665B0F3E3A45
:1019D6002A373B69000000000000000000000000FC
:1019E6000000990515071B053405260577050D0A20
:1019F600006E616E00696E66006F7666002E0000EE
:00000001FF
